:020000040800F2
:10000000D85B002045010008112C0008BF1800082B
:100010002F2B0008250F0008D94100080000000020
:10002000000000000000000000000000C5370008CC
:100030004510000800000000C1320008413B0008E4
:100040005F0100085F0100085F0100085F01000810
:100050005F0100085F0100085F0100085F01000800
:100060005F0100085F0100085F0100085F010008F0
:100070005F0100085F0100085F0100085F010008E0
:100080005F0100085F0100085F0100085F010008D0
:100090005F0100085F0100085F0100085F010008C0
:1000A0005F0100085F0100085F0100085F010008B0
:1000B0005F0100085F010008413C00085F01000883
:1000C0005F0100085F0100085F0100085F01000890
:1000D0005F010008F13D00085F010008793E00085B
:1000E0005F0100085F0100085F0100085F01000870
:1000F0005F0100085F0100085F0100085F01000860
:100100005F0100085F0100085F0100085F0100084F
:100110005F0100085F0100085F0100085F0100083F
:100120005F0100085F0100085F0100085F0100082F
:10013000DFF80CD000F084FE00480047255300088B
:10014000D85B00200648804706480047FEE7FEE7E8
:10015000FEE7FEE7FEE7FEE7FEE7FEE7FEE7FEE777
:10016000753B000831010008A0F14101192900D8B0
:100170002030704740EA01039B0703D009E008C91B
:10018000121F08C0042AFAD203E011F8013B00F85C
:10019000013B521EF9D27047D2B201E000F8012BA8
:1001A000491EFBD270470022F6E710B513460A46F7
:1001B00004461946FFF7F0FF204610BD421E12F814
:1001C000013F002BFBD111F8013B02F8013B002B52
:1001D000F9D1704730B505462A460B4612F8010B97
:1001E00013F8014B08B1A042F8D01CB1002802D08E
:1001F0006D1CF1E7284630BDCAB2401E10F8011F41
:100200008A4202D00029F9D100207047421C10F820
:10021000011B0029FBD1801A704710B5002200E0B5
:10022000521C835C8C5CA34201D1002BF8D1D8B264
:10023000E1B2401A10BD10B5044600E0401C03783E
:10024000002BFBD100E0401C521E04D311F8013BEF
:100250000370002BF7D100210170204610BD30B58E
:1002600005460020034600E05B1C934205D2EC5C8F
:10027000C85C201A01D1002CF6D130BD2DE9FF4F0A
:10028000087883B09946FF2805D0491C2D2804D052
:100290000024002008E000200BE00124F9E700EB37
:1002A000800003EB4000491C0B78FF2BF7D104B111
:1002B000404200230293147819461D462D2C01D08C
:1002C0002B2C04D1521C2D2C13D000240294AA46AE
:1002D0001478FF2C0FD00A25A3FB057801FB0581BC
:1002E0004FF0000C03FB0C11521CE3194AEB010107
:1002F000EEE70124EAE7814453EA010002D019F550
:10030000C87F06DA03980021C0E9001107B0BDE8F4
:10031000F08F0025AE4E2F46DFF8B882184600F069
:100320004EFDCDE90001B9F1000002DAC9F1000487
:1003300000E004460023A74A1AEB030B42EB045AE1
:1003400012E0E00707D02A4633463846414600F01F
:100350005CFA074688462A4633461046194600F09E
:1003600054FA05460E466410002CEAD1DDE900017E
:10037000B9F1000F5A46534606DA00F0B1FC3A468E
:10038000434600F0ADFC05E000F03FFA3A46434634
:1003900000F03BFA029A0AB181F00041039AC2E9E7
:1003A0000001B3E72DE9FF4F1F468DB0D7E90146A5
:1003B0004FF0FF382E2045464FF000090B90B969E9
:1003C0006D1C0E988847396A824688470028F6D106
:1003D000BAF1FF3F0AD024F4D064002E11DDBAF147
:1003E0002B0F08D0BAF12D0F0BD102E0404611B00F
:1003F0008DE744F48064B9696D1C0E988847824685
:10040000761E6946600501D52D2000E02B208DF871
:10041000000001F1010B0DF1200809E0B9696D1C24
:100420000E98884782460F9844F40074761E056043
:10043000002E02DDBAF1300FF0D00B998A453ED183
:1004400044F0800406E00F99681CA9F1010944F406
:1004500000740860B9696D1C761E0E988847824644
:100460003028F0D02BE00B998A4505D1200603D423
:1004700044F08004761E18E0504604F0B9F808B342
:100480000DF11301761E44F400748B4508D2AAF1D5
:1004900030000BF8010B200607D5A9F1010003E09D
:1004A000200602D409F101008146A00502D50F996A
:1004B000681C0860B9696D1C0E9888478246002E3A
:1004C000D1DC53E0002E51DDBAF1650F02D0BAF154
:1004D000450F4BD1A00549D5B9696D1C24F4407472
:1004E000761E0E9888478246002E0CDD2B2804D0FD
:1004F000BAF12D0F07D144F48074B9696D1C0E98C0
:1005000088478246761EE00501D52D2100E02B218B
:1005100008F8011BCDF82C8021E00DF12901761E91
:1005200044F4007488450CD2AAF1300010F0FF00AA
:1005300088F8000002D10B99884509D908F1010813
:1005400006E0E00501D5244801E042F20F70814643
:10055000B9696D1C0E98884782460F980560002E79
:1005600004DD504604F044F80028D6D1F9690E980D
:100570008847FF208BF8000088F8000000200690D4
:1005800007904B466A4608A906A8FFF777FEA00524
:1005900002D46FF001002AE714F0240F0AD0E0071C
:1005A00014D1DDE906123868031D3B600068C0E91C
:1005B00000120BE0DDE9060100F025FC0146E00732
:1005C00004D13868021D3A600068016028460EE7D1
:1005D000000014400000F03FF1D8FFFF80EA010264
:1005E00010B502F00043400022D04A001FD0010E97
:1005F00001EB1261C0F35600C2F3560240F4000052
:1006000042F40002A0FB022000047F39140400D051
:10061000401C50EA124001D44000491EC2B20C06F0
:1006200004EBD010401C4008802A02D003E00020D8
:1006300010BD20F00100002900DA0020184310BD91
:1006400030B480EA010202F0004530F0004221F0AF
:10065000004013D090B1C30DD40DC2F31601C0F306
:100660001600E41A41F4000140F400027D34914286
:1006700001D3641C00E04900002C02DA30BC0020E9
:1006800070474FF400000023914201D3891A0343BD
:1006900040084FEA4101F7D151B1914202D14FF0E8
:1006A000004105E002D24FF0010101E06FF00101CD
:1006B00003EBC450284430BC00F07EBA2DE9FE4F55
:1006C000804681EA0300C00F0C46009021F00041F3
:1006D00023F00045B8EB0200A94105D2404621466F
:1006E00090461C460B46024623F00040104347D07C
:1006F000270DC7F30A00C3F30A510290401A019074
:1007000040286BDAC3F3130040F4801B0098924634
:1007100020B10023D2EB030A63EB0B0B019859467F
:10072000C0F14002504600F0A8F906460D4650467A
:100730005946019A00F0C0F910EB0800614100240D
:1007400087EA115284EAE7731A4340D0009A62B3F1
:10075000019A012A4FEA075215DC001B61EB0201E6
:100760004FF0004202EA0752CDE90042001C41F579
:10077000801132462B4600F065FA03B0BDE8F08FD9
:1007800040462146F9E7001B61EB0201001C41F5E0
:10079000801300185B412018A2F5001747EB0301F6
:1007A00040EAD570B6196D4111E06D084FEA360682
:1007B00045EAC0754FEA0752001B61EB0201001CBD
:1007C00041F5801149084FEA300000195141324685
:1007D0002B4603B0BDE8F04F00F025BA0098012287
:1007E00040000023D0EB020263EBE0730098214647
:1007F0004FEAE074B8EB000061EB0401E9E783F035
:1008000000435BE781F0004158E72DE9FE4F81EAA4
:10081000030404F0004421F0004100944FF0000B69
:1008200023F0004350EA01045ED052EA03045BD097
:10083000C3F30A54C1F30A552C44A4F2F3340194CF
:10084000A0FB0254C1F3130141F48011C3F313035D
:1008500043F4801301FB024400FB034E840A970A11
:1008600044EA815447EA8357A4FB076802958D0A3E
:1008700005FB07854FEA932C04FB0C542705029DCA
:100880004FEA065847EA1637B5EB08056EEB070C3A
:10089000870E920E47EA811742EA8312A7FB0201F4
:1008A000B6EB0B0164EB00042B0D43EA0C335E182E
:1008B00044EB1C50DA465146E7FB0201C5F3130432
:1008C0004FEA0B3343EA14534FEA0432019C43EAE4
:1008D0000603A4F10C040294009CCDE900B400F0DE
:1008E000B1F903B0BDE8F08F00200146F9E7962387
:1008F0000022114600F069B90EB5C10F80EAE07020
:100900000844CA07002140F233438DE80E000A462E
:100910000B4600F097F903B000BD00F0004220F054
:100920000040C10DC0F3160040F400007F2901DA39
:1009300000207047962903DCC1F19601C84001E010
:1009400096398840002AF4D04042704770B5C1F310
:100950000A5201F000450024C1F3130140F2FF33B5
:1009600041F480119A4201DA002070BD40F2334315
:100970009A42A2F2334203DC524200F08DF800E0CA
:1009800090402C43F1D0404270BD000030B5041EB1
:1009900071F1000404DB4FF00044404264EB0101BC
:1009A000141E73F1000405DB1C464FF00043524255
:1009B00063EB04038B4208BF824230BD30B5041E96
:1009C00071F1000404DB4FF00044404264EB01018C
:1009D000141E73F1000405DB1C464FF00043524225
:1009E00063EB0403994208BF904230BD30B50B461B
:1009F000014600202022012409E021FA02F59D424F
:100A000005D303FA02F5491B04FA02F52844151E22
:100A1000A2F10102F1DC30BD2DE9F05F05460020B6
:100A200092469B4688460646814640241BE028465F
:100A300041464746224600F02FF853465A46C01A10
:100A4000914110D311461846224600F016F82D1A8F
:100A500067EB01084F4622460120002100F00DF807
:100A600017EB00094E41201EA4F10104DFDC4846CB
:100A700031462A464346BDE8F09F202A04DB203A4F
:100A800000FA02F1002070479140C2F1200320FAE1
:100A900003F3194390407047202A04DB203A21FADF
:100AA00002F00021704721FA02F3D040C2F1200287
:100AB0009140084319467047202A06DBCB17203A9D
:100AC00041FA02F043EAE07306E041FA02F3D04053
:100AD000C2F120029140084319467047426842B172
:100AE000016811F8013B23B1521EC0E900121846FB
:100AF00070470121C160881E704742685AB1C368BF
:100B0000016843B983688B4205D0491E521CC0E975
:100B10000012002070474FF0FF3070470FB40023E1
:100B200000B589B00CA900910B996FF00042CB6021
:100B30001E4B06931E4B07930423CDE901321D4A39
:100B4000089202466B460020FFF72CFC09B05DF8C6
:100B500014FB70B586B006464FF0FF300091CDE92A
:100B60000101002015460C4604903246694604A84F
:100B7000FFF7D4FF02460498211825B108B10846B2
:100B800000E020462860049800280DD0002A02DDED
:100B90000098884208D0081B0094CDE90104324631
:100BA000694604A8FFF7BAFF06B070BDDD0A000869
:100BB000FB0A0008650E00080029A8BF7047401C0A
:100BC000490008BF20F00100704710B4B0FA80FC63
:100BD00000FA0CF050EA010404BF10BC704749B1A0
:100BE000CCF1200421FA04F411FA0CF118BF012110
:100BF00021430843A3EB0C01CB1D4FEA00614FEAF0
:100C0000102042BF002010BC704700EBC3501044BE
:100C10000029A4BF10BC7047401C490008BF20F049
:100C2000010010BC704710B5141E73F1000408DAFF
:100C3000401C41F1000192185B411A4301D120F0A0
:100C4000010010BD2DE9F04D92469B4611B1B1FA5D
:100C500081F202E0B0FA80F220329046FFF70DFFF9
:100C600004460F4640EA0A0041EA0B0153465A4641
:100C7000084313D0114653EA010019D0C8F14002CD
:100C80005046FFF709FF05460E4650465946424674
:100C9000FFF7F3FE084305D0012004E02046394663
:100CA000BDE8F08D0020054346EAE0762C4337434B
:100CB0000A986305E40AA0EB08000022FD0A44EA52
:100CC00047540A3002D500200146E9E70105101912
:100CD0006941DDE9084500196941BDE8F04DA2E729
:100CE0002DE9F04D81EA030404F0004B21F00045AA
:100CF00014464FF0000A23F0004150EA050220D0CC
:100D000054EA01021DD0C5F30A570246C5F3130386
:100D1000C1F31300C1F30A5640F4801543F4801365
:100D2000A7EB0608101BD64608F2FD3873EB05004A
:100D300002D308F1010801E092185B41B8F1000FFD
:100D400003DA00200146BDE8F08D00204FF4801149
:100D5000064684460EE0171B73EB050705D3121BEE
:100D600063EB050306434CEA010C49084FEA3000E7
:100D700092185B4150EA0107EDD152EA030012D00C
:100D800082EA040083EA0501084305D0101BAB4149
:100D900006D20122002306E000224FF0004302E0C9
:100DA0006FF0010253101AEB06004CEB085110EBE8
:100DB0000A0041EB0B01BDE8F04DFFF734BF0EB563
:100DC00040F2334202920022CDE900221346FFF79F
:100DD00039FF03B000BDC1F30A52C1F3130140F261
:100DE000FF3341F480119A4202DA00200146704735
:100DF00040F233439A42A2F2334202DC5242FFF7FE
:100E00004BBEFFF73ABE01F0004330B421F0004181
:100E100050EA010206D00A0DA2F56072C1F3130177
:100E2000002A02DC30BC00207047440F44EAC104B1
:100E3000C100E01830BC00EBC250FFF7BDBE00009F
:100E4000064C074D06E0E06840F0010394E8070017
:100E500098471034AC42F6D3FFF76EF9E867000804
:100E600008680008C0B24FF4F05100F001B800006B
:100E70007F2801D9002208E0064A02EB5002C00791
:100E8000127800D1120902F00F02012090400840B0
:100E900070470000EE66000870B58C1810F8015B12
:100EA00015F0070301D110F8013B2A1106D110F803
:100EB000012B03E010F8016B01F8016B5B1EF9D107
:100EC0002B0705D40023521E0DD401F8013BFAE78D
:100ED00010F8013BCB1A921C03E013F8015B01F8F8
:100EE000015B521EF9D5A142D8D3002070BD00008D
:100EF00010B50B48007888B109480078012802D065
:100F0000022807D103E0012002F0AEFC02E002F06B
:100F10005BFC00BF00BF00200149087010BD00004D
:100F2000BC4B002000BFFEE710B5012000F028FFF9
:100F300004463CB12E48007820B92E4804700120A8
:100F40002B49087064B12A480078012808DB28483A
:100F500000781E2804DC26480078401C24490870CC
:100F600014BB2348007800281EDD214800781E2885
:100F70001ADA20480078012804D0022806D0032875
:100F80000CD107E01CA003F0E7F908E01DA003F076
:100F9000E3F904E01EA003F0DFF900E000BF00BFAA
:100FA00000201349087021E004BB114800781E2876
:100FB0001CDB10480078012804D0022809D003283F
:100FC0000FD10AE015A003F0C7F9012016490870F7
:100FD00008E016A003F0C0F904E017A003F0BCF984
:100FE00000E000BF00BF00200149087010BD0000F4
:100FF000090A00200A0A00204B6579315F53686FA7
:1010000072740A004B6579325F53686F72740A001C
:101010004B6579335F53686F72740A004B657931A1
:101020005F4C6F6E670A0000BC4B00204B65793245
:101030005F4C6F6E670A00004B6579335F4C6F6ED3
:10104000670A00007047000030B58BB000200790A1
:10105000089009900A900125354B364A36A13CA0EC
:1010600003F07AF907A8002102910391CDE9041059
:1010700000912B022E4A01912E492FA001F032F847
:10108000002843D1089A91B2079800F03BFAFA2061
:1010900000F000F90446002C2FD0204601F0EAFCB5
:1010A00002282AD1204601F0B6FB062820D2DFE82C
:1010B00000F0030B0F13171B2DA003F04DF90025B3
:1010C00000203049087117E02FA003F045F913E024
:1010D00034A003F041F90FE03BA003F03DF90BE031
:1010E00041A003F039F907E048A003F035F903E027
:1010F00051A003F031F900BF00BF22480079401C25
:101100002049087107A800F0DBFE07E01D480079C0
:10111000401C1C4908714FA003F01EF919480079C2
:10112000022801DD02F00EFD28460BB030BD0000A4
:101130009467000850670008736D61727464657687
:10114000696365266839736A304F6E536164420083
:1011500050524F49443A20257309415549463A2097
:1011600025730944455649443A25730D0A00000089
:10117000546970733A09C1ACBDD3B3C9B9A60D0A9D
:1011800000000000BC4B00205741524E3A09C1AC50
:10119000BDD3CAA7B0DCA3BAD0ADD2E9B4EDCEF3CB
:1011A0000D0A00005741524E3A09C1ACBDD3CAA73F
:1011B000B0DCA3BAB7C7B7A8B5C4636C69656E7471
:1011C00069640D0A000000005741524E3A09C1AC53
:1011D000BDD3CAA7B0DCA3BAB7FECEF1C6F7CAA783
:1011E000B0DC0D0A000000005741524E3A09C1AC74
:1011F000BDD3CAA7B0DCA3BAD3C3BBA7C3FBBBF2A2
:10120000C3DCC2EBB4EDCEF30D0A00005741524EE1
:101210003A09C1ACBDD3CAA7B0DCA3BAB7C7B7A857
:10122000C1B4BDD328B1C8C8E7746F6B656EB7C7CA
:10123000B7A8290D0A0000004552523A09C1ACBDB9
:10124000D3CAA7B0DCA3BACEB4D6AAB4EDCEF30D00
:101250000A0000005741524E3A094D5154545F5014
:1012600061636B6574436F6E6E656374204661697C
:101270006C65640D0A00000010B54FF480710348DE
:10128000FEF791FF00200249088010BDBC420020FB
:10129000F809002070B50546002400BF00F054F99D
:1012A00080B90DA10E48FEF795FF044654B13A21CE
:1012B0002046FEF7A1FF044614B1641C204670BD11
:1012C0000020FCE7052003F069FE281EA5F10101BE
:1012D0008DB2E3D100BFF2E74950442C000000007A
:1012E000BC42002000B5A1B0FA2003F057FEFFF782
:1012F000C3FF32A003F030F803E04FF4967003F020
:101300004DFEC8222FA130A000F0D4F80028F4D15F
:101310002FA003F021F803E04FF4967003F03EFE97
:10132000C82228A12DA000F0C5F80028F4D12FA0D4
:1013300003F012F803E04FF4967003F02FFEC8227A
:1013400020A12DA000F0B6F80028F4D12EA003F0C3
:1013500003F8802101A8FEF726FF2DA32FA230A1BC
:1013600001A803F009F803E04FF4967003F016FEAD
:10137000C82231A101A800F09DF80028F4D130A0C6
:1013800002F0EAFF802101A8FEF70DFF40F25B7337
:101390002EA23AA101A802F0EFFF03E04FF4FA7089
:1013A00003F0FCFDC8223CA101A800F083F800284E
:1013B000F4D13BA002F0D0FF21B000BD41540D0A92
:1013C000000000004F4B000041540D0A0D000000CA
:1013D00043574D4F44450D0A0000000041542B4334
:1013E000574D4F44453D310D0A00000041542B43F9
:1013F00057444843500D0A0041542B435744484337
:10140000503D312C310D0A0043574A41500D0A001E
:101410003132333435363738000000004E45540041
:1014200041542B43574A41503D222573222C2225FB
:1014300073220D0A00000000474F5420495000005D
:1014400043495053544152540D0A0000696F742DA2
:1014500030367A30306178646867666B32346E2E6D
:101460006D7174742E696F746875622E616C697920
:10147000756E63732E636F6D0000000041542B4343
:10148000495053544152543D22544350222C22255A
:1014900073222C25640D0A00434F4E4E45435400E1
:1014A0004553503832363620496E6974204F4B0D03
:1014B0000A0000002DE9F04105460E461446284674
:1014C000FEF7A4FE87B23946284602F02DFF0FE052
:1014D00000F03AF848B931460948FEF77BFE20B1E2
:1014E000FFF7CAFE0020BDE8F0810A2003F056FD98
:1014F000201EA4F101018CB2EAD10120F3E7000023
:10150000BC42002030B589B005460C46FFF7B4FE5A
:10151000224608A101A802F02FFFC82209A101A8B4
:10152000FFF7C8FF18B92146284602F0FDFE09B0B2
:1015300030BD000041542B43495053454E443D2596
:10154000640D0A003E0000000A48008808B9012026
:1015500070470848008808490988884203D100205C
:1015600004490880F4E70348008803490880012003
:10157000EEE70000F8090020FA090020044900E025
:10158000521C11F8013B002BFAD1500870470000A3
:101590002409002010B50446062C22D2DFE804F00E
:1015A00003080D12171C0121084601F08BFE18E0FC
:1015B0000121022001F086FE13E00121042001F048
:1015C00081FE0EE00121082001F07CFE09E00121EE
:1015D000102001F077FE04E00121202001F072FECE
:1015E00000BF00BF10BD70B504460D46164620462C
:1015F000FFF7D0FF32462946204600F05AF8204631
:1016000000F001F870BD3EB50446204602F0E6FB4E
:101610000546062C33D2DFE804F0030B131B232A04
:101620004FF47A70ADF804004820ADF8000026E0D1
:1016300040F2E730ADF804004720ADF800001EE0AE
:101640004FF47A70ADF804004820ADF8000016E0C1
:1016500040F2E630ADF804004620ADF800000EE0A0
:101660005920ADF804004F20ADF8000007E040F22B
:10167000E730ADF804004720ADF8000000BF00BF20
:101680000020ADF80600ADF802008DF808006946AC
:10169000284602F051FB0121284602F021FB0122DD
:1016A0001146284602F03FFB0021284602F01EFBAF
:1016B0003EBDF8B506460C4615464FF4A06001F055
:1016C000E1FA26B1012E06D0022E0CD107E01C2033
:1016D0008DF8000007E01D208DF8000003E01E20BB
:1016E0008DF8000000BF00BF8DF801408DF802505A
:1016F00001208DF80300684601F08CFAF8BD2DE951
:10170000F041024600250026002000230024002787
:1017100091F803C00CF00F0591F803C00CF0100C09
:10172000BCF1000F03D091F802C04CEA050591F816
:1017300000C0BCF1000F31D0146800202BE04FF046
:10174000010C0CFA00F3B1F800C00CEA03069E424B
:1017500020D183004FF00F0C0CFA03F7BC4305FABD
:1017600003FC4CEA040491F803C0BCF1280F06D135
:101770004FF0010C0CFA00FCC2F814C00AE091F81A
:1017800003C0BCF1480F05D14FF0010C0CFA00FC6E
:10179000C2F810C0401C0828D1D31460B1F800C0B2
:1017A000BCF1FF0F34DD546800202EE000F1080C7E
:1017B0004FF0010808FA0CF3B1F800C00CEA030678
:1017C0009E4221D183004FF00F0C0CFA03F7BC436B
:1017D00005FA03FC4CEA040491F803C0BCF1280F9D
:1017E00005D100F1080C08FA0CF8C2F8148091F841
:1017F00003C0BCF1480F07D100F1080C4FF00108FD
:1018000008FA0CF8C2F81080401C0828CED35460A7
:10181000BDE8F081F0B50A46002300240021002530
:1018200000F00046B6F1004F02D11D4EF16901E013
:101830001B4E7168C0F3034583B200F44016B6F541
:10184000401F08D121F07061154E766826F0706651
:10185000134F7E6012E000F48016B6F5801F06D1AB
:10186000032606FA05F4A14341F0706106E0460D37
:10187000360103FA06F6B14341F0706122B1460D1C
:10188000360103FA06F6314300F00046B6F1004F88
:1018900002D1034EF16101E0014E7160F0BD000024
:1018A000000001400246002093680B400BB101206C
:1018B00000E000207047416170470161704700BF40
:1018C000FEE700003EB500244FF4A06001F0DAF915
:1018D000FFF754FE4B49086003F03EFB0122002154
:1018E0000220FFF780FE4FF4E13002F077FC4FF466
:1018F000E13002F0C3FC02F06DF900F0BDFA00F037
:1019000091FA01F08DFA002001F045FA002001F073
:1019100050FA3DA1404802F02FFD3F4A022100202D
:1019200001F032FB03F008FE3C483D49086000200E
:101930003C4908604FF4FA703B49086000BF3DE045
:1019400000BF3A4800680128FBD03949072003F05E
:10195000B2FD374800788007800B3549497840EA66
:101960000120334989780843324941F8240030483E
:10197000C0788007800B2E49097940EA01202C4964
:10198000497908432C4941F824002A4850F824009A
:1019900023490968884204D2264850F82400204987
:1019A0000860244850F824001E490968884204D978
:1019B000204850F824001B490860641C1A4800683D
:1019C0008442BDDB1B4850F824001C4908601C48B9
:1019D0001C491D4A1D4BCDE900210290154A1248B1
:1019E0000168154803F016FE02E0052003F0D6FA60
:1019F0001749184801F0FFFC0128F6D101F0C6F99B
:101A00003EBD0000B40900202D2D2D204D4158333E
:101A100030313032202D2D00FC210020FFFF03004B
:101A20001400002018000020000000201C8121422A
:101A30002D0000202C1A00205C1200201C00002029
:101A4000100000200C0000200800002004000020EE
:101A5000040A0020FC09002008B50121082001F03B
:101A600041FC4FF48070ADF8000004208DF80300B5
:101A700069460248FFF743FE08BD0000000C014024
:101A800008B50121082001F02DFC4FF48070ADF85D
:101A9000000003208DF8020010208DF80300694635
:101AA0000148FFF72CFE08BD000C0140FEB50020E8
:101AB0009E4908609E489F49086000209E49086032
:101AC00064209A4908603AE09C489849096850F8AF
:101AD0002110964800686438984A42F820109848C7
:101AE0009249096850F82110904800686438944A77
:101AF00042F8201091488D49096850F821008D491D
:101B00000968884206D28D488849096850F8210042
:101B10008849086089488549096850F82100864944
:101B20000968884206D985488049096850F821002B
:101B3000814908607D480068401C7C4908607B48FA
:101B40000068B0F5FA7FBFDB4FF4C87077490860D2
:101B5000C6E076480068401E784951F8200079496F
:101B6000086000BF784800680128FBD0774907204B
:101B700003F0A1FC754800788007800B7349497811
:101B800040EA01207149897808436C49674A126824
:101B900041F822006D48C0788007800B6B490979B5
:101BA00040EA012069494979084365495F4A12685A
:101BB00041F8220061485D49096850F821006149F7
:101BC0000968884231D95D49584A126851F8221093
:101BD0005C4A1268881AFEF78AFE5D490860564919
:101BE0000968544A1268881AFEF781FE04462146A5
:101BF00057480068FEF724FD554908605549544888
:101C00000068FEF7EBFC5249086008460068FEF7E2
:101C100084FE51490968081A4F490860084600685F
:101C2000002833DA0020086030E044493F4A126857
:101C300051F82210434A1268501AFEF758FE4449E0
:101C400008603D4909683B4A1268881AFEF74FFE52
:101C5000044621463E480068FEF7F2FC3C49086015
:101C60003C493B480068FEF7B9FC39490860084622
:101C70000068FEF752FE3849096808443649086092
:101C800008460068FF2801DDFF200860334800781F
:101C900001280FD13248006878280BDA30480078E4
:101CA00030490870304800783049087014203049B5
:101CB000087110E02E48007968B12D480079401E67
:101CC0002B49087108460079012804D100202549D4
:101CD00008702649087015480068401C13490860C0
:101CE00012480068B0F5FA7FFFF633AF1B481C4975
:101CF000204A1D4BCDE900210290104A1E48016880
:101D00000F4803F087FC1648006870B1144800685B
:101D1000FEF7F2FD06464FF03332184BFEF775FD25
:101D20000446FEF713FE0E490860FEBD20000020A9
:101D3000FFFF030014000020180000202C1A0020D0
:101D40005C1200201C0000201C8121422D0000207C
:101D50002800002000007F43240000201000002005
:101D60000C0000203300002004000020340000207C
:101D7000040A002008000020000000203333EB3F5D
:101D800010B5044614B10120244908702348007896
:101D900060B34FF480512248FFF784FD58B14FF4EF
:101DA00000511F48FFF77EFD28B14FF480411C48C9
:101DB000FFF778FDD0B90020184908704FF4805122
:101DC0001748FFF76FFD08B9012010BD4FF400510F
:101DD0001348FFF767FD08B90220F6E74FF480418A
:101DE0000F48FFF75FFDB0B90320EEE74FF48051D5
:101DF0000B48FFF757FD01280DD141030848FFF7B5
:101E000051FD012807D181030548FFF74BFD01284B
:101E100001D1024908700020D7E7000050000020DF
:101E2000000C014008B50121082001F05BFA4FF4D5
:101E30008050ADF8000048208DF8030069460D4839
:101E4000FFF75DFC4FF40050ADF8000048208DF81E
:101E5000030069460748FFF752FC4FF48040ADF895
:101E6000000048208DF8030069460248FFF747FC50
:101E700008BD0000000C014008B50121182001F048
:101E800031FA4FF40050ADF8000010208DF8030037
:101E900003208DF8020069460648FFF730FC402019
:101EA000ADF8000069460448FFF729FC002003490B
:101EB000086008BD00100140000C0140B40122423E
:101EC00010B50446207B012802D1206802F068FA90
:101ED000002020606060A060207310BD02460023D7
:101EE00001230DE002F07F000870D2092AB10878C2
:101EF00040F080000870491C01E0184670475B1CE8
:101F0000042BEFDD4FF0FF30F8E7000010B5C0B054
:101F100004464FF480716846FEF745F927A0008813
:101F2000208027480068002825DD2548006896287D
:101F300021DC2448006800281DDD4FF480716846CC
:101F4000FEF731F91E4820A10268684602F014FA33
:101F500069462046FEF732F94FF480716846FEF775
:101F600022F918481CA10268684602F005FA694681
:101F70002046FEF723F94FF480716846FEF713F907
:101F80001948C27819A1684602F0F6F96946204658
:101F9000FEF714F94FF480716846FEF704F917A1B3
:101FA000684602F0E9F969462046FEF707F920463F
:101FB000FEF72CF9C0B240B010BD00007B0000005D
:101FC0000C00002004000020226865617274223A2F
:101FD000222564222C0000002270756C7365223A61
:101FE000222564222C000000040A0020227772724D
:101FF000696E67223A222564220000007D000000FD
:1020000070B504460E460025206898B9012020735B
:10201000304602F0F3F920602068E0B100206060F3
:10202000A66003E00020216848556D1CA068A84206
:10203000F8D810E00220207303E000202168485502
:102040006D1CA068A842F8D800206060A068B0426B
:1020500001D20020206070BD2DE9FF5F07460D46CC
:1020600090463846FEF7D2F886B22846FEF7CEF8FC
:102070001FFA80FA4FF00009B01D02F0BFF90446C4
:102080001CB9012004B0BDE8F09FB11D2046FEF749
:102090008AF812A0016821608088A0803246394603
:1020A0002046FEF7C8F82846FEF7B0F88346012020
:1020B000002100915B462A46CDE9020801912146A4
:1020C0000A2000F05FF910B94FF0000901E04FF06D
:1020D0000109204602F064F94846D3E7246372738D
:1020E000702F00002DE9FF4F83B082468B4691464A
:1020F000159C0025002002900F2701904846FEF70E
:1021000085F80FFA80F8B9F1000F03D1012007B06C
:10211000BDE8F08F08F10200384487B2109808B18A
:1021200045F00205129878B145F004051298FEF7C3
:102130006DF8C0B202901398FEF768F80146029855
:10214000001D0844384487B2119820B1012804D0FA
:10215000022808D104E000BF07E045F00C0504E0C8
:1021600045F0140501E00220D1E700BF149808B142
:1021700045F02405BAF1000F02D0BBF1000F01D1E8
:102180000320C4E745F0C0055046FEF73FF8064679
:102190005846FEF73BF83044001D384487B23946B4
:1021A0002046FFF72DFF206808B90420AFE7394625
:1021B0002068FDF7F8FF10216268501C60602068FD
:1021C0008154D4E90023D118781FFFF787FE00B2AD
:1021D00001900198002804DA2046FFF771FE0520DF
:1021E00095E7616801980844606000216268501CAE
:1021F00060602068815404216268501C606020681F
:1022000081544D216268501C6060206881545121C6
:102210006268501C60602068815454216268501CC0
:102220006060206881546268501C6060206881543E
:1022300004216268501C6060206881546168481CF9
:102240006060206845540698010A6268501C60600E
:10225000206881540698C1B26268501C6060206892
:102260008154C8F307216268501C60602068815463
:102270006268501C6060206800F80280D4E9001297
:10228000881842464946FDF7D6FF606840446060C2
:1022900005F00400B8B30026139808B938A01390CD
:1022A0001298FDF7B3FF86B2310A6268501C606075
:1022B000206881546268501C606020688654D4E9AC
:1022C0000012881832461299FDF7B5FF6068304455
:1022D00060601398FDF79AFF86B2310A6268501C5D
:1022E0006060206881546268501C60602068865479
:1022F000D4E90012881832461399FDF79CFF6068F4
:102300003044606000BF05F08000C8B15046FDF762
:102310007DFF86B2310A6268501C6060206881547B
:102320006268501C606020688654D4E900128818E6
:1023300032465146FDF77FFF60683044606000BF61
:1023400005F04000C8B15846FDF760FF86B2310A7B
:102350006268501C6060206881546268501C606034
:1023600020688654D4E90012881832465946FDF791
:1023700062FF60683044606000BF0020C7E6000074
:10238000000000002DE9FF4F83B083469046994638
:10239000139C002600250020029001900027BBF12D
:1023A000000F03D1012007B0BDE8F08F00250AE03F
:1023B0000498405D232803D00498405D2B2801D168
:1023C0000220F0E76D1C0498405D0028F0D147F032
:1023D0003007119808B147F0010705EB0900861C8A
:1023E000109820B1012804D002280AD105E000BFCE
:1023F00009E047F00207B61C05E047F00407B61CE9
:1024000001E00320CFE700BF98F80000022822D1A6
:102410004FF0000A00BF50460AF1010A18F8000008
:102420007D28F8D1AAF1030A0AF107000290029868
:10243000A9EB000AF01CA0EB0A012046FFF7E0FD23
:10244000206808B90420AEE7F21CA2EB0A0120685C
:10245000FDF7A9FE0BE0F11C2046FFF7D1FD206837
:1024600008B904209FE7F11C2068FDF79CFE616815
:10247000481C606020684754D4E900028118304647
:10248000FFF72CFD01900198002804DA2046FFF7A1
:1024900017FD052087E76168019808446060C5F36F
:1024A00007216268501C6060206881546268501C7B
:1024B000606020688554D4E9001288182A4604997F
:1024C000FDF7B9FE606828446060109860B14FEA7B
:1024D0001B216268501C6060206881546268501C37
:1024E0006060206800F802B0B8F1000F19D098F8C9
:1024F000000002280BD1D4E9001288184146029A44
:10250000FDF738FE616802980844606009E0D4E98C
:10251000001288184A464146FDF72CFE6068484480
:10252000606000203FE770B505460C460421204658
:10253000FFF766FD206808B9012070BD4021626880
:10254000501C60602068815402216268501C6060E9
:102550002068815429126268501C60602068815490
:102560006268501C6060206885540020E5E770B503
:1025700005460C4604212046FFF742FD206808B9B5
:10258000012070BD70216268501C60602068815419
:1025900002216268501C60602068815429126268C0
:1025A000501C6060206881546268501C6060206824
:1025B00085540020E5E770B505460C460421204609
:1025C000FFF71EFD206808B9012070BD5021626828
:1025D000501C60602068815402216268501C606059
:1025E0002068815429126268501C60602068815400
:1025F0006268501C6060206885540020E5E770B573
:1026000005460C4604212046FFF7FAFC206808B96D
:10261000012070BD62216268501C60602068815496
:1026200002216268501C606020688154291262682F
:10263000501C6060206881546268501C6060206893
:1026400085540020E5E72DE9FF5F8046174699464F
:102650000E9C0026B246B3460025B8F1000F03D108
:10266000012004B0BDE8F09F0BE057F8250008B941
:102670000220F6E757F82500FDF7C8FD0644681C60
:10268000C5B24D45F1DB09EB4900801C00EB060AA1
:102690000AF105012046FFF7B3FC206808B90320C2
:1026A000DFE782216268501C606020688154D4E9B1
:1026B000000281185046FFF711FC0FFA80FBBBF1B6
:1026C000000F04DA2046FFF7FBFB0420C9E760682F
:1026D000584460604FEA18216268501C60602068AE
:1026E00081546268501C6060206800F802800025F8
:1026F00024E057F82500FDF789FD0646C6F30721BB
:102700006268501C6060206881546268501C606080
:1027100020688654D4E90023D01857F82510324693
:10272000FDF789FD6068304460600198C1B262685D
:10273000501C606020688154681CC5B24D45D8DBD0
:1027400000208EE7F0B504460D4626460123002002
:102750001060002114E0775C07F07F07106807FB2A
:1027600003001060705C00F0800008B9481CF0BDE8
:10277000DB01B3F5001F02D36FF00100F7E7491C3E
:10278000A942E8DB4FF0FF30F1E72DE9F84380463E
:102790000C4615461E462F2108F10600FDF72CFDBC
:1027A00007460020009017B90120BDE8F8837F1C80
:1027B0006A46042108F10100FFF7C4FF252001F05B
:1027C0001DFE2060206808B90220EEE72521206860
:1027D000FDF7E9FC242239462068FDF7CBFC2437BD
:1027E00000982C3830803188481C01F007FE2860A2
:1027F000286820B9206801F0D3FD0320D5E732888E
:10280000511C2868FDF7CFFC328839462868FDF74F
:10281000B1FC0020C9E701464878022801D0012018
:102820007047887810B18878012801D1C878F7E717
:10283000FF20F5E72DE9FC5F81460D4614461E4654
:10284000DDE90C8B99F8000000F00F0A00200190E0
:102850000AF008000090CAF341008BF8000001AABA
:10286000042109F10100FFF76DFF4844471C01985E
:10287000022802D30AF0010010B1FF20BDE8FC9F3E
:102880007878397840EA012020802088801C0199DE
:10289000884201D9FF20F1E754A1B81CFDF79AFC4A
:1028A00008B10F20EAE79BF8000020B101283DD0D5
:1028B000022877D13BE0009808B1FF20DEE72188AD
:1028C000481C01F09BFD2860286808B9FF20D5E767
:1028D0002288511C2868FDF766FC2288B91C2868EC
:1028E000FDF748FC0198801E2188401AA8F80000D6
:1028F000B8F80010481C01F081FD3060306820B944
:10290000286801F04DFDFF20B8E7B8F80020511C01
:102910003068FDF748FCB8F80020B4F800C0BB1CD4
:102920000CEB03013068FDF725FC4FE000BF208869
:10293000801C0199884201D9FF209FE72088C01C94
:10294000395C2088801C385C41EA00210E980180A7
:102950000E9808B9FF2091E72188481C01F04EFD30
:102960002860286808B9FF2088E72288511C286859
:10297000FDF719FC2288B91C2868FDF7FBFB0198BC
:10298000001F2188401AA8F80000B8F80010481C61
:1029900001F034FD3060306828B9286801F000FD8E
:1029A000FF206BE710E0B8F80020511C3068FDF7FD
:1029B000FAFBB8F80020B4F800C03B1D0CEB030193
:1029C0003068FDF7D7FB01E0FF2057E700BF2B2160
:1029D0002846FDF711FC20B923212846FDF70CFC01
:1029E00008B1FF204AE7002048E700002463726531
:1029F0007100000001464878022801D0012070478C
:102A0000887820B9C8780A2801D10020F7E701208A
:102A1000F5E701464878022801D001207047887800
:102A200020B9C8780A2801D10020F7E70120F5E78E
:102A300001464878022801D001207047887820B9E3
:102A4000C8780A2801D10020F7E70120F5E70246FF
:102A50005078022801D0012070479078B0EB112FF8
:102A600005D1D078CBB2984201D10020F4E7012003
:102A7000F2E70000F8B50446FF2720780511012D84
:102A800001DB0E2D01DD3846F8BD032D24D10020D9
:102A900000906A460421601CFFF754FE2044461C47
:102AA0000098022803D3207800F0010008B1FF202D
:102AB000EAE77078317840EA0120801C009988426A
:102AC00001D9FF20E0E706A1B01CFDF783FB08B1A8
:102AD0000F2700E0032700E02F463846D4E7000028
:102AE00024637265710000000146FF208A78A2B954
:102AF000CA78142A11D10A7932B1012A05D0022AE2
:102B000004D0802A06D103E000BF00BF002003E00C
:102B1000012001E0022000BF00BF704701460120F4
:102B20008A781AB9CA781E2A00D10020704700BFDF
:102B3000FEE7000010B5A0B0044680216846FDF70E
:102B400032FB11A00088208080216846FDF72BFB16
:102B50000E4802780EA1684601F00EFC6946204638
:102B6000FDF72CFB80216846FDF71DFB0DA1684693
:102B700001F002FC69462046FDF720FB2046FDF7E8
:102B800045FBC0B220B010BD7B000000040A00204D
:102B900022636865636B5F646576696365223A22C8
:102BA000256422007D00000010B5A0B004468021FD
:102BB0006846FDF7F8FA11A0008820808021684659
:102BC000FDF7F1FA01220EA1684601F0D5FB694636
:102BD0002046FDF7F3FA80216846FDF7E4FA0BA1E1
:102BE000684601F0C9FB69462046FDF7E7FA204632
:102BF000FDF70CFBC0B220B010BD00007B00000050
:102C00002274696D65223A22256422007D0000004D
:102C10007047000070B5002100230F22C47804B370
:102C2000154C246804F4E064C4F5E064210AC1F1A1
:102C30000403CA40447804FA03F184781440214321
:102C400009010E4C0678A155047804F01F050124F3
:102C5000AC4005786D11AD0005F1E025C5F80041E7
:102C600009E0047804F01F050124AC40044D067807
:102C7000761145F8264070BD0CED00E000E400E060
:102C800080E100E002490143024A11607047000000
:102C90000000FA050CED00E000B58DB000F076F80C
:102CA00021A1684601F068FB6A460021084600F051
:102CB0006BF921A221A1684601F05EFB6A46022160
:102CC000002000F061F922A224A1684601F054FB23
:102CD0006A460421002000F057F925A1684601F05A
:102CE0004BFB6A460621002000F04EF9FEF7FAFA87
:102CF00003E04FF4967002F051F9FEF7A5F90028B1
:102D0000F7D103E04FF4967002F048F901211D4815
:102D100000F08CFE0028F5D13C201B49087000F023
:102D200035F80DB000BD00002DC7EBB4F2BFAA57B7
:102D3000494649C8C8B5E3004E4554002DC3FBB30E
:102D4000C63A2573202020202020202020000000CB
:102D50003132333435363738000000002DC3DCC241
:102D6000EB3A257320202020202020202000000086
:102D70002DC6B5C2CA3A20322E342047487A2020C8
:102D80002000000038000020F409002010B50020C9
:102D900000F025F810BD10B504461CB90021A6208E
:102DA00000F0A4F9012C03D10021A72000F09EF926
:102DB00010BD10B504463CB90021C82000F096F9BA
:102DC0000021A12000F092F9012C07D10021C020A0
:102DD00000F08CF90021A02000F088F910BD70B53A
:102DE0000646002419E004F1B001C8B2002100F049
:102DF0007DF90021084600F079F90021102000F04B
:102E000075F9002505E00121304600F06FF9681CD6
:102E1000C5B2822DF7DB601CC4B2082CE3DB70BDA9
:102E200008B50121042000F05DFAE020ADF80000B3
:102E300010208DF8030003208DF8020069465048E9
:102E4000FEF75DFCE0214E48FEF737FD012108202A
:102E500000F048FA0320ADF8000010208DF80300C0
:102E600003208DF8020069464648FEF748FC03211E
:102E70004448FEF722FD80214148FEF71EFD6420F4
:102E800002F08CF880213E48FEF715FDC82002F0C4
:102E900085F880213A48FEF710FD0021AE2000F0B1
:102EA00025F90021084600F021F90021102000F04A
:102EB0001DF90021402000F019F90021812000F0C7
:102EC00015F90021CF2000F011F90021A12000F018
:102ED0000DF90021C82000F009F90021A62000F01A
:102EE00005F90021A82000F001F900213F2000F0A1
:102EF000FDF80021D32000F0F9F80021084600F089
:102F0000F5F80021D52000F0F1F80021802000F034
:102F1000EDF80021D92000F0E9F80021F12000F0BF
:102F2000E5F80021DA2000F0E1F80021122000F09D
:102F3000DDF80021DB2000F0D9F80021402000F06E
:102F4000D5F80021202000F0D1F80021022000F067
:102F5000CDF800218D2000F0C9F80021142000F0E8
:102F6000C5F80021A42000F0C1F80021A62000F03F
:102F7000BDF80021AF2000F0B9F8FFF707FF08BD4A
:102F800000080140000C01402DE9F0470746884643
:102F90001646002584E03078A02845DD00253CE079
:102FA000702F04DD002708F1020000F0FF083078E0
:102FB0003E4911F8151088422ED17078012101EB9D
:102FC00045013A4A515C884226D14146384600F0D4
:102FD00077F8002407E004EB4511354A505C0121E5
:102FE00000F084F8641C102CF5D308F10100C1B284
:102FF000384600F065F8002408E004EB4511103174
:103000002B4A505C012100F071F8641C102CF4D3A1
:1030100007F11000C7B204E06D1C26480068854225
:10302000BED300BFB61C3BE07A2F04DD002708F1B9
:10303000020000F0FF0831781F48FDF7DDF88146F7
:10304000B9F1000F2BD04146384600F039F8002482
:103050000AE099F80010203904EB0111174A505C7E
:10306000012100F043F8641C082CF2D308F10100A0
:10307000C1B2384600F024F800240BE099F80010A3
:10308000203904EB011108310C4A505C012100F099
:103090002DF8641C082CF1D307F10800C7B2761C88
:1030A000307800287FF477AFBDE8F087240900204E
:1030B00044060020B40900205309002054000020D9
:1030C00070B504460D4605F1B001C8B2002100F00C
:1030D0000DF8102141EA1410002100F007F804F067
:1030E0000F00002100F002F870BD000070B504462A
:1030F0000E4626B101211848FEF7DFFB03E001214F
:103100001548FEF7D8FB02211348FEF7D4FB002533
:1031100017E020211148FEF7CEFB04F0800020B11B
:1031200040210E48FEF7C9FB03E040210B48FEF7A3
:10313000C2FB20210948FEF7C0FB6006040E681C94
:10314000C5B2082DE5DB02210348FEF7B6FB0121DD
:103150000148FEF7B2FB70BD000C014000080140C1
:1031600010B5C0B004464FF480716846FDF71BF8F7
:1031700039A00088208069462046FDF71FF84FF4EB
:1031800080716846FDF70FF834A1684601F0F4F845
:1031900069462046FDF712F84FF480716846FDF746
:1031A00002F838A1684601F0E7F869462046FDF7C5
:1031B00005F84FF480716846FCF7F5FF34A16846C6
:1031C00001F0DAF869462046FCF7F8FF334800685A
:1031D000002821DD3148006896281DDC4FF48071FD
:1031E0006846FCF7E0FF2D482DA10268684601F013
:1031F000C3F869462046FCF7E1FF4FF4807168464A
:10320000FCF7D1FF29482AA10268684601F0B4F80A
:1032100069462046FCF7D2FF4FF480716846FCF700
:10322000C2FF26A1684601F0A7F869462046FCF7D0
:10323000C5FF4FF480716846FCF7B5FF1FA16846D3
:1032400001F09AF869462046FCF7B8FF2046FCF7E3
:10325000DDFFC0B240B010BD7B000000226D657480
:10326000686F64223A227468696E672E736572769D
:103270006963652E70726F70657274792E736574F0
:10328000222C0000226964223A2231222C00000004
:1032900022706172616D73223A7B00000C00002085
:1032A000226865617274223A25642C0004000020B3
:1032B0002270756C7365223A256400007D00000061
:1032C0007047000029B1064AD2690243044BDA6113
:1032D00004E0034AD2698243014BDA61704700007F
:1032E0000010024029B1064A92690243044B9A61D8
:1032F00004E0034A92698243014B9A6170470000DF
:103300000010024030B500210022002400232D4D82
:103310006D6805F00C0121B1042905D0082923D1DD
:1033200005E0294D056022E0274D05601FE0254D91
:103330006D6805F47012234D6D6805F48034022524
:1033400005EB92421CB9214D554305600BE01D4D24
:103350006D6805F400351DB11C4D5543056002E054
:10336000194D5543056002E0174D056000BF00BFD1
:10337000144D6D6805F0F0010909154D6B5C056889
:10338000DD4045600F4D6D6805F4E061090A104DA0
:103390006B5C4568DD4085600A4D6D6805F46051E1
:1033A000C90A0B4D6B5C4568DD40C560054D6D6815
:1033B00005F44041890B074D6B5CC568B5FBF3F51F
:1033C000056130BD0010024000127A0000093D0086
:1033D000CA090020DA09002000B502220249034888
:1033E000006800F00DFC00BD020A0020B8090020B2
:1033F00001460120704770B504460D46FFF7ECFF0B
:10340000012070BD70B58CB0064600200890099070
:103410000A900B900790069005900490002403906A
:1034200000253046FFF726FB0446E01E0D2870D22B
:10343000DFE800F028707B93ADCDB5CDC1CDCDCD0B
:10344000070004AB07AA06A93046FFF79EF9054618
:10345000BDB9BDF810306BA0DDE9061200F07CFFAD
:1034600008AADDE90601FEF7F7FD50B96EA000F0ED
:1034700073FF099A91B20898FEF744F808A8FEF77E
:103480001FFDA7E06E4803A904AA07ABCDE9002100
:10349000029005AA06A93046FFF7CCF90546002D93
:1034A00036D1BDF810000090BDF8142065A0DDE90C
:1034B000061300F051FF9DF80C00012802D00228ED
:1034C00024D111E008A95E480088FFF72CF850B914
:1034D0006BA000F041FF099A91B20898FEF712F82C
:1034E00008A8FEF7EDFC12E008A955480088FFF790
:1034F00062F850B968A000F02FFF099A91B20898BD
:10350000FEF700F808A8FEF7DBFC00E000BF00BFF4
:1035100060E05CE03046FFF76DFA10B964A000F09F
:103520001BFF3C206A49087054E03046FFF780FAE0
:1035300090B968A000F010FF08A90A20FFF75FF813
:1035400050B96AA000F008FF099A91B20898FDF7F7
:10355000D9FF08A8FEF7B4FC3CE0394801883046A2
:10356000FFF775FA90B967A000F0F6FE08A90A20E7
:10357000FEF7FDFF50B969A000F0EEFE099A91B286
:103580000898FDF7BFFF08A8FEF79AFC22E0304636
:10359000FFF73FFA10B968A000F0DEFE1AE03046EF
:1035A000FFF7A2FA18B96AA000F0D6FE02E06FA0F9
:1035B00000F0D2FE0EE03046FFF7B0FA18B972A064
:1035C00000F0CAFE02E077A000F0C6FE02E04FF075
:1035D000FF3500BF00BFFDF74FFE681C08B90CB0F7
:1035E00070BD079810B1079801F0CEFE0F2C01D0E6
:1035F000032C05D1069800F0D3FE079800F0D0FE0A
:1036000000BFECE7636D6469643A2025732C207277
:1036100065713A2025732C207265715F6C656E3A76
:103620002025640D0A000000546970733A0953653F
:103630006E6420436D64526573700D0A00000000D3
:10364000F6090020746F7069633A2025732C20748A
:103650006F7069635F6C656E3A2025642C20706121
:10366000796C6F61643A2025732C207061796C6FDE
:1036700061645F6C656E3A2025640D0A00000000ED
:10368000546970733A0953656E64205075626C69B1
:10369000736841636B0D0A00546970733A0953658E
:1036A0006E64205075626C6973685265630D0A0020
:1036B000546970733A094D515454205075626C69C5
:1036C00073682053656E64204F4B0D0A00000000A4
:1036D000F4090020546970733A09526576205075D8
:1036E000626C6973685265630D0A000054697073F7
:1036F0003A0953656E64205075626C69736852654F
:103700006C0D0A00546970733A0952657620507541
:10371000626C69736852656C0D0A000054697073BD
:103720003A0953656E64205075626C697368436F23
:103730006D700D0A00000000546970733A095265FB
:1037400076205075626C697368436F6D700D0A0066
:10375000546970733A094D51545420537562736320
:1037600072696265204F4B0D0A0000005469707346
:103770003A094D51545420537562736372696265FE
:10378000204572720D0A0000546970733A094D5158
:10379000545420556E537562736372696265204F8D
:1037A0004B0D0A00546970733A094D515454205519
:1037B0006E537562736372696265204572720D0A99
:1037C000000000007047000030B5C9B000204590EF
:1037D000469047904890002400254FF4807105A83A
:1037E000FCF7E1FC05A8FFF7BBFC0446002C19D050
:1037F00045A801210022CDE90012234605AACDE902
:10380000021009A10A20FEF7BDFD40B9469A91B207
:103810004598FDF777FE45A8FEF752FB02E010A0A1
:1038200000F09AFD49B030BD2F7379732F6839735A
:103830006A304F6E536164422F736D6172746465B8
:10384000766963652F7468696E672F6576656E7437
:103850002F70726F70657274792F706F73740000BF
:103860005741524E0D0A000030B5C9B00446002041
:10387000459046904790489000254FF4807105A8E8
:10388000FCF791FC012C06D0022C09D0032C0CD0A3
:10389000042C14D10EE005A8FEF738FB05460FE016
:1038A00005A8FFF781F905460AE005A8FFF742F9E8
:1038B000054605E005A8FFF73DF9054600E000BF15
:1038C00000BFCDB145A801210022CDE900122B4651
:1038D00005AACDE9021009A10A20FEF753FD40B95F
:1038E000469A91B24598FDF70DFE45A8FEF7E8FA15
:1038F00002E00AA000F030FD49B030BD2F62726FC7
:103900006164636173742F6839736A304F6E5361F9
:1039100064422F7465737432000000005741524EA8
:103920000D0A000010B500F001F810BD0CB5002024
:10393000019000903348006840F4803031490860BD
:1039400000BF3048006800F4003000900198401C2F
:103950000190009818B90198B0F5A06FF1D12948ED
:10396000006800F4003010B10120009001E0002058
:1039700000900098012843D12348006840F01000CF
:10398000214908600846006820F0030008600846E6
:10399000006840F0020008601A4840681949486011
:1039A0000846406848600846406840F480604860C7
:1039B0000846406820F47C1048600846406840F49F
:1039C000E81048600846006840F08070086000BF5A
:1039D0000C48006800F000700028F9D009484068E1
:1039E00020F00300074948600846406840F00200A4
:1039F000486000BF0348406800F00C000828F9D177
:103A00000CBD0000001002400020024010B5012350
:103A100040F2DC520349044802F0F8FC024802F08C
:103A200025FD10BDCD6300082C120020F0B585B037
:103A300004460D4600260020019002900390049059
:103A400006E054F826101FA000F086FC701CC6B2D9
:103A5000AE42F6DB01A82B4622460221009014203C
:103A6000FEF7F1FD00282BD1029A91B20198FDF7E3
:103A700049FD4FF4FA70FDF70DFC07463846FEF796
:103A8000F9FF09280AD115A000F066FC01A8FEF78D
:103A900017FA00201849087105B0F0BD17A000F012
:103AA0005BFC01A8FEF70CFA13480079401CC0B279
:103AB00011490871022801DD00F044F80120EBE70C
:103AC0000120E9E753756273637269626520546F80
:103AD0007069633A2025730D0A0000005469707301
:103AE0003A094D515454205375627363726962658B
:103AF000204F4B0D0A000000BC4B0020546970732E
:103B00003A094D515454205375627363726962656A
:103B1000204572720D0A0000042808D14FF0E02100
:103B2000096941F004014FF0E022116107E04FF014
:103B3000E021096921F004014FF0E0221161704792
:103B400070470000012080F3138800BF00BF0748C2
:103B5000006800F4E06006490843001D034908605E
:103B6000BFF34F8F00BF00BFFEE700000CED00E089
:103B70000000FA0510B51348006840F00100114933
:103B8000086008464068104908400E4948600846E9
:103B900000680E4908400B4908600846006820F498
:103BA000802008600846406820F4FE0048604FF41A
:103BB0001F008860FFF7B6FE4FF000600449086000
:103BC00010BD0000001002400000FFF8FFFFF6FEED
:103BD00008ED00E010B501210820FFF783FB01216B
:103BE0000846FFF77FFB01210348FDF713FE012183
:103BF0000248FDF70FFE10BD000430000002300047
:103C000030B503460D480488B3F1006F01D201209E
:103C100030BD4FF0006000EB8420984201D20220BA
:103C2000F6E703E018780870491C5B1C101EA2F12F
:103C30000105AAB2F6D100BFEAE70000E0F7FF1FD6
:103C400010B50121214800F05DF800283DD0204842
:103C50000068401C1E49086002F030FC1C480068E7
:103C60001921B0FBF1F201FB120010B90020194933
:103C70000870174800684FF47A71B0FBF1F201FB4D
:103C80001200F0B900201249086013484078401C27
:103C9000114948704878C11700EB91718910A0EB69
:103CA000810129B90C49097811B902200A49087023
:103CB0000A480078002804DD08480078401E0749BB
:103CC00008700121014800F00EF810BD0008004006
:103CD000140A0020180A0020BC4B0020F409002020
:103CE000CA4302827047CA430282704721B10288E8
:103CF00042F00102028004E002884FF6FE731A408F
:103D00000280704730B50246002000230024158A47
:103D100005EA0103958905EA010413B10CB10120FC
:103D200000E0002030BD1AB183890B43838102E09B
:103D300083898B4383817047002202881D4B984200
:103D40000ED01D4B98420BD0B0F1804F08D01B4BCA
:103D5000984205D01A4B984202D01A4B984204D18F
:103D60004FF68F731A404B881A43174B984207D06F
:103D7000164B984204D04FF6FF431A40CB881A43A3
:103D800002808B8883850B8803850A4B98420BD071
:103D9000094B984208D00E4B984205D00D4B9842E3
:103DA00002D00D4B984201D10B7A03860123838206
:103DB00070470000002C0140003401400004004026
:103DC00000080040000C00400010004000140040BB
:103DD00000400140004401400048014001460229E2
:103DE00001D1024800BF00BF70470000000800403A
:103DF00010B540F225511D4800F086F810B31B485D
:103E000000F03EF9C4B21A48008800F40040C8B976
:103E10001748008800F4804060B10A2C03D00020CD
:103E20001349088020E01248008840F400401049FF
:103E3000088019E00D2C06D10D48008840F4804020
:103E40000B49088010E00A480088C0F30D000949BA
:103E50000C5407480088401C054908800846008823
:103E6000C72801DD0020088010BD00000038014097
:103E7000C80900209039002010B540F225510E48A5
:103E800000F042F8B0B10D480088FF2802D90020A8
:103E90000A4908800848001D0088C1B20748028806
:103EA0000088401C054B1880054881542021024899
:103EB00000F008F810BD000000480040F80900209C
:103EC000BC42002001F40072B2F5007F00D100BFB7
:103ED000CA430280704721B1828942F40052828134
:103EE00004E082894DF6FF731A40828170470246D2
:103EF0000020B1F5007F00D100BF13880B400BB14B
:103F0000012000E00020704770B502460024002325
:103F10000025002040F66A16B14200D100BFC1F36F
:103F2000421501F01F03012606FA03F3012D02D109
:103F30009689334006E0022D02D1168A334001E013
:103F4000968A33400C12012606FA04F4168834408F
:103F500013B10CB1012000E0002070BDF0B50346A4
:103F6000002400260025002040F66A17B94200D13F
:103F700000BF1846C1F3421401F01F06012707FADB
:103F800006F5012C01D10C3004E0022C01D11030D7
:103F900000E014301AB107682F43076002E0076899
:103FA000AF430760F0BD00002DE9F04786B005463D
:103FB0000E460024A24600BFA1460027B08900B1EA
:103FC00000BF2F462C8A4CF6FF700440F088044353
:103FD0002C82AC894EF6F3100440B0883189084336
:103FE000718908430443AC81AC8A4FF6FF4004401A
:103FF000B0890443AC8201A8FFF784F91F488742C7
:1040000002D1DDF810A001E0DDF80CA0A88900F4D1
:10401000004040B10AEBCA0000EB0A1031684900C9
:10402000B0FBF1F807E00AEBCA0000EB0A103168B8
:104030008900B0FBF1F86420B8FBF0F0040120091E
:10404000642101FB1089A88900F4004040B13220AE
:1040500000EBC900B0FBF1F000F00700044308E0FA
:10406000322000EB09106421B0FBF1F000F00F00EA
:1040700004432C8106B0BDE8F08700000038014001
:1040800001468888C0F308007047C1F308028280A7
:104090007047000010B50E480068782811DD0C4804
:1040A000006896280DDA01200A490860322000F0E5
:1040B00075FF00200849C1F8980101200749C87020
:1040C00004E00020034908600449C870012010BDC5
:1040D0000C0000209881214200802142040A002027
:1040E00000B58DB02948006800281DDD274800680C
:1040F000962819DA26480078B0B1244825A102682C
:10410000684600F039F96A4600210846FEF73CFF90
:10411000244825A10268684600F02EF96A4602216B
:104120000020FEF731FF13E000221AA1684600F0DC
:1041300023F96A4600210846FEF726FF00221AA14D
:10414000684600F019F96A4602210020FEF71CFFBC
:1041500019A1684600F010F96A4604210020FEF714
:1041600013FF1848C07820B117A1684600F004F981
:1041700003E017A1684600F0FFF86A4604213C20DE
:10418000FEF702FF01200DB000BD00000C00002072
:10419000080000204865617274203A20253033649D
:1041A0000000000004000020426C6F6F64203A2081
:1041B000253033640000000057616E696E673A2055
:1041C00000000000040A0020204F70656E200000EF
:1041D000436C6F736520000000BFFEE710B586B02A
:1041E0000446012144F20400FFF77CF84FF400700C
:1041F000ADF8140003208DF8160018208DF8170074
:1042000005A91C48FDF77BFA4FF48060ADF8140057
:1042100004208DF8170005A91648FDF770FA25202F
:104220008DF8000003208DF801008DF802000120B8
:104230008DF803006846FEF7EDFC01940020ADF810
:104240000800ADF80A00ADF80C00ADF810000C2025
:10425000ADF80E0001A90848FFF7A6FE012240F2C2
:1042600025510548FFF77AFE01210348FFF733FE89
:1042700006B010BD000801400038014010B586B0FE
:10428000044601210820FFF72DF801218804FFF7DB
:1042900019F818208DF817004FF48060ADF814005D
:1042A00003208DF8160005A91D48FDF728FA042003
:1042B0008DF817004002ADF8140003208DF81600A9
:1042C00005A91748FDF71BFA01940020ADF810006E
:1042D0000C20ADF80E000020ADF80C00ADF80A007F
:1042E000ADF8080001A90F48FFF75EFE01210D4857
:1042F000FFF7F1FD012240F225510A48FFF72EFE9B
:1043000027208DF8000001208DF803008DF80100B2
:104310008DF802006846FEF77DFC06B010BD000077
:10432000000C01400048004070B504460D460026D0
:104330000DE014F8011B0748FFF7A7FE00BF40215E
:104340000448FFF7D4FD0028F9D0701C86B2AE42B5
:10435000EFDB70BD004800400FB4054B10B503A95A
:10436000044A029800F04CF910BC5DF814FB000000
:1043700035500008C40900200FB4084B10B504A93B
:1043800002AA039800F03CF9044602A9002000F0BC
:10439000CEFC204610BC5DF814FB00002F4D000839
:1043A00030B528B1144C031F002021680A4605E0EF
:1043B000084630BD9A4203D810465268002AF9D107
:1043C000002800D041680BD00468A3EB0005A5428B
:1043D00004D11B681C440346046002E0436000E013
:1043E00023603AB11C68D51AA54203D115682C4444
:1043F0001C6052685A6030BD240A00202DE9F04745
:1044000082460F4C10480D4E0E4F001B4FF0000817
:1044100020F007054FF0010900221146504600F038
:1044200059FF002802D1306810B10020BDE8F087A4
:104430003C60C4E90058C6F80090EDE7280A002067
:10444000DC4B0020240A0020D857002002E008C8D6
:10445000121F08C1002AFAD170477047002001E0FE
:1044600001C1121F002AFBD1704700002DE9FF5F38
:1044700082B00021DDE90430020DDDF840B00343D5
:1044800018D044F61050A2F2FF324243151411988E
:1044900001281FD0A5EB0B00401C5FEA000A4FF07B
:1044A00000064E4FDFF83891B046504615D5CAF198
:1044B000000413E0119801244AA3012801D16FEAF6
:1044C0000B010298119AC0E90031C0E9024206B01E
:1044D000BDE8F09FCBF10000DFE704460021404A31
:1044E000491842EB0450CDE9001012E0E00707D074
:1044F00032463B4640464946FCF787F980468946A6
:1045000032463B4610461946FCF77FF906460F46F1
:104510006410002CEAD1DDE90401DDE90023BAF1E1
:10452000000F06DAFCF771F942464B46FCF76DF9CD
:1045300005E0FCF7D5FB42464B46FCF7D1FB0446B1
:104540000E460022284BFCF739FA03D84FF0FF3013
:10455000014607E00022254B20463146FCF7AEF825
:10456000FCF739FC102409E0002C0ADB0A220023A6
:10457000FCF752FA039B30321A55641E50EA0102CE
:10458000F2D1641C039AC4F111031444119A012A54
:1045900003D0012208430DD10AE0084304D00020D3
:1045A0004FF0110B119072E7A3EB0B056D1E0DE0A0
:1045B0005B4504DD4FF0000205F1010504E003DA7C
:1045C0004FF00002A5F10105002AECD002981199E4
:1045D000C0E90231C0E9004579E70000000014405D
:1045E0000000F03F300000000000F0430000E03F1A
:1045F00030380A2801D2012070470020704700009F
:104600002DE9FF4F95B09B468946064600250FE2EF
:10461000252877D100242746F84A0121059400E097
:10462000044316F8013F203B01FA03F01042F7D192
:1046300030782A2811D06FF02F033078A0F13002A3
:10464000092A16D8059A44F0020402EB820203EB11
:1046500042021044761C0590EFE759F8042B0592AE
:10466000002A03DA504244F40054059044F0020456
:10467000761C30782E2816D116F8010F44F0040469
:104680002A280DD06FF02F023078A0F13003092BCB
:1046900009D807EB870302EB4303C718761CF3E73F
:1046A00059F8047B761C30786C280FD006DC4C2837
:1046B00017D068280DD06A2814D104E0742810D0CF
:1046C0007A280FD10DE044F400140AE044F4801479
:1046D00001E044F440147278824202D104F580145F
:1046E000761C761C307866280BD013DC582877D0DF
:1046F00009DC002875D04528F6D04628F4D0472894
:104700001AD19DE118E0632835D0642879D0652856
:1047100012D195E1702873D008DC6728F1D06928A0
:104720006FD06E280DD06F2806D1B5E073282CD03D
:10473000752875D0782874D05A46179990476D1C03
:1047400075E1C4F30250022809D003280DD0D9F82E
:10475000001004280DD00D6009F1040967E1D9F8B3
:104760000010EA17C1E90052F6E7D9F800100D80F1
:10477000F2E70D70F0E719F8041B8DF80010002027
:104780008DF80100EA46012003E059F804AB4FF030
:10479000FF3061074FF0000102D40DE008F1010184
:1047A0008846B9420FDA8045F8DB1AF8081000296C
:1047B000F4D108E008F1010188468142FADB1AF8D9
:1047C00008100029F6D105985B46A0EB08072146A2
:1047D0003846179A00F094FA284400EB080507E0E1
:1047E0004DE029E10DE01AF8010B5A461799904760
:1047F000B8F10108F7D25B4621463846179A13E113
:1048000042E00A220092C4F302524FF0000A022A48
:1048100008D059F804CB032A4FEAEC710AD00DE016
:1048200029E02AE009F1070121F00702F2E802C1BC
:10483000914609E00FFA8CFC4FEAEC71042A03D18F
:104840004FFA8CFC4FEAEC71002907DA0A46002186
:10485000DCF1000C61EB02012D2202E0220504D5FF
:104860002B228DF80420012203E0E20701D0202250
:10487000F7E7904659E00A2102E010220DE01021EE
:104880004FF0000A00910BE010224FF0000A44F0B4
:1048900004040827009203E008224FF0000A009267
:1048A000C4F30252022A05D059F804CB0021032A8E
:1048B00008D009E009F1070121F00702F2E802C17E
:1048C000914605E01FFA8CFC042A01D10CF0FF0C84
:1048D0004FF00008220728D5702806D0009B83F0EF
:1048E000100353EA0A0305D00EE040228DF804209D
:1048F000012208E05CEA010206D030228DF8042093
:104900008DF8050002229046009B83F0080353EACD
:104910000A030AD15CEA010201D1620705D53022FF
:104920008DF804204FF001087F1E582804D034A0D1
:1049300003900EA802900DE036A0F9E753466046BA
:10494000009AFCF769F884460398825C0298401E3E
:10495000029002705CEA0100F0D1029806A9081AE0
:1049600000F1200A600702D524F4803400E001271A
:10497000574502DDA7EB0A0000E0002000EB0A012A
:10498000009005984144401A0590E00306D45B4628
:104990002146179A059800F0B3F90544002706E070
:1049A00001A85A46C05D179990476D1C7F1C47456A
:1049B000F6DBE0030CD55B462146179A059800F01C
:1049C0009FF9054404E030205A46179990476D1C22
:1049D0000099481E00900029F5DC08E00298029931
:1049E0005A460078491C0291179990476D1CBAF1FC
:1049F0000001AAF1010AF1DC65E1000009280100CB
:104A00003031323334353637383961626364656644
:104A10000000000030313233343536373839414206
:104A2000434445460000000000F058F90544761C58
:104A3000307800287FF4ECAD19B02846BDE8F08F3F
:104A4000620700D4062709F1070222F0070CFCE8F0
:104A50000223E14603F000485FEA080C02D00FF29F
:104A6000702C0DE05FEA045C02D50FF2682C07E0C1
:104A70005FEAC47C02D00FF2602C01E0AFF2700C50
:104A80004FF0FF3823F00043CDF850C065280CD01C
:104A900006DC452809D046281DD047283DD13DE0F9
:104AA000662818D067287ED138E00021112F01DB5D
:104AB000112000E0781CCDE9000106A90EA8FFF73F
:104AC000D5FCDDE90F010E9A03910021009207F158
:104AD000010A04914DE04FF000400097CDE901102C
:104AE00006A90EA8FFF7C2FCDDE90F0203920E9B98
:104AF00011990022DDF80CA00093049211B9791CE1
:104B000000EB010AB7EB0A0004D4C0F1FF3007F153
:104B1000010A0490AAEB0700019044E0012F00DA9B
:104B200001270021112F01DD112000E03846CDE9D9
:104B3000000106A90EA8FFF799FCDDE90F010E9A06
:104B40000391002104910092BA4621070CD40399E5
:104B5000514500DA8A46BAF1010F05DD009AAAF143
:104B60000101515C302908D0B84202DA10F1040F7B
:104B700006DA0121CDE9011015E0AAF10101E9E70A
:104B8000002805DC049901440491AAEB000102E02D
:104B9000411C514500DD8A460499401A401C019091
:104BA0004FF000400290200704D40198504501DBEB
:104BB000CDF8048000208DF84F0002980DF14F07CA
:104BC000B0F1004F25D02B200E9002984FF0020834
:104BD00000280CDA404202902D200E9007E00A21B6
:104BE0000298FBF703FF3031029007F8011DB8F17E
:104BF0000001A8F10108F2DC02980028EFD1791E2B
:104C00000E980870307800F0200040F0450007F85A
:104C1000020D12A8C01B00F107081498007800B11B
:104C2000012000EB0A01019801EBE0710598414475
:104C3000401A401E0590E00306D45B462146179AB1
:104C4000059800F05DF805441498007818B15A46AC
:104C5000179990476D1CE00324D55B462146179AAF
:104C6000059800F04DF805441CE00498002807DB87
:104C7000DDE90301884203DD0098405C179901E0FB
:104C8000179930205A469047049805F10105401CB9
:104C900004900198401E019004D12E205A46179985
:104CA00090476D1CBAF10001AAF1010ADDDC05E0B4
:104CB00017F8010B5A46179990476D1CB8F100017F
:104CC000A8F10108F4DC5B462146179A0598ABE68B
:104CD0002D0000002B000000200000002DE9F04115
:104CE000044600251E461746880404D405E03946CC
:104CF0002020B0476D1C641EF9D52846BDE8F08120
:104D00002DE9F041044600251E469046C80301D512
:104D1000302700E02027880404D505E041463846C6
:104D2000B0476D1C641EF9D52846BDE8F0810A68BD
:104D3000531C0B6010707047014609B1086808B930
:104D40000020704719B1D1E90120904201D30846F3
:104D5000F7E702E08868401C886041B1D1E9012092
:104D6000904204D28A680868805C2028F2DDD1E98C
:104D70000120904202D18868401E88600846E0E722
:104D800070B50446002522E02568A08900F48070F3
:104D900020B9A06810B1A068FFF7F2FFA08900F465
:104DA000807028B9206918B10A4A2069516888477B
:104DB000A08900F4007028B9206A18B1054A206A59
:104DC0005168884703484168204688472C46002C94
:104DD000DAD170BDE809002070B504460D46002206
:104DE0002946204600F036F970BD70B504462820EB
:104DF0002168884705461DB128212846FBF7D3F9CD
:104E0000284670BD10B5044600221146204600F029
:104E10006BF810BD2DE9F0478AB004460E461546E2
:104E200098461C2103A8FBF7BEF9002700202C4957
:104E30000860486004B106B932E00394049600208B
:104E40000590284A07CA07AB07C32648FFF7CDFFDE
:104E5000074607B924E003A801F08CFA8246FFF761
:104E60006BFF81464946384601F0B0F900B917E0BA
:104E7000B8F1000F0BD003A8FFF75EFFDDE90410C7
:104E8000884203D205990398405C00B108E01DB147
:104E9000059903980844286038460AB0BDE8F087B1
:104EA00017B13846FFF76CFFC4B10194002002909F
:104EB000DDE90410884202D20598029004E00498CB
:104EC00010B10498401E02901DB1DDE901010844B3
:104ED00028600348DDE9011206C000BF0020DCE7BE
:104EE000E0090020E80900202DE9F04104460D46C4
:104EF000164614B90020BDE8F0812046FBF786F97C
:104F0000471C33462A4639462046FFF783FFF2E71F
:104F100070B504460D4604B10DB9012070BDAC4218
:104F200001D10020FAE705E0207808B90020F5E774
:104F3000641C6D1C2078FBF717F906462878FBF7F0
:104F400013F98642F0D02078FBF70EF90646287850
:104F5000FBF70AF9301AE1E710B56FF00400FEF72D
:104F6000DBFD0A4800680A49B0FBF1F00949087006
:104F70000846007800EB4001C1EBC0104FF6FF710E
:104F800001EAC0000449088010BD00003C00002078
:104F900000127A00C0090020C20900200146114A0F
:104FA00012884A434FF0E0235A6100229A611A4660
:104FB000126942F001021A6100BF4FF0E02210694D
:104FC00000F001021AB100F48032002AF5D04FF04F
:104FD000E022126922F001024FF0E0231A61002260
:104FE0009A617047C20900200146114A12784A436B
:104FF0004FF0E0235A6100229A611A46126942F08A
:1050000001021A6100BF4FF0E022106900F00102B6
:105010001AB100F48032002AF5D04FF0E022126974
:1050200022F001024FF0E0231A6100229A617047DA
:10503000C009002000BF054A128802F04002002A81
:10504000F9D0C2B2014B1B1D1A80704700380140D5
:105050002E2070472DE9F04105460E4617460024E4
:1050600005B116B90020BDE8F081AC685FB100E081
:1050700024688CB1206A78B13046216AFBF7CDF8FC
:105080000028F5D108E000E024682CB13046216A00
:10509000FFF73EFF0028F7D10CB1206A08B90020C5
:1050A000E1E72046DFE7000010B500200A4908606C
:1050B000FCF7E6FC00200949C1F8A0010220FFF737
:1050C00093FF0120044908600220FFF78DFF0020B4
:1050D0000249C1F8A40110BDA481214200802142EF
:1050E00008B501210820FEF7FDF84FF48070ADF8F7
:1050F000000003208DF8020010208DF8030069469F
:105100000B48FCF7FCFA4FF40070ADF800000320E8
:105110008DF8020010208DF8030069460448FCF762
:10512000EEFA0120034908600349C1F8A00108BD57
:10513000000C0140A48121420080214210B50020D2
:105140000A490860FCF79CFC01200949C1F8A0014C
:105150000220FFF749FF0120044908600220FFF701
:1051600043FF00200249C1F8A40110BDA4812142DF
:105170000080214270B505460024FCF76DFC002636
:1051800016E000200F4908600220FFF72DFF0120E4
:105190000D49C1F8A4016006040E0A48843800686D
:1051A00008B1601CC4B20120FFF71EFF701CC6B21C
:1051B000082EE6DB15B9FFF7C1FF01E0FFF774FF2A
:1051C000204670BDA48121420080214270B5044672
:1051D000FCF756FC00200F490860002517E0E009A5
:1051E0000C49091F08606006040E0220FFF7FCFE50
:1051F00001200949C1F8A4010220FFF7F5FE0020B3
:10520000044908600220FFF7EFFE681CC5B2082DB4
:10521000E5DB70BDA48121420080214210B5FCF77E
:105220002FFC0120094908600949C1F8A4010420A4
:10523000FFF7DAFE0020054908600420FFF7D4FEDE
:1052400000200349C1F8A40110BD0000A081214243
:105250000080214210B5FCF713FC002008490860CB
:105260000849C1F8A0010420FFF7BEFE012004494F
:1052700008600449C1F8A0010420FFF7B5FE10BD85
:10528000A48121420080214210B50024FCF7E4FBF8
:1052900001200E490860FFF7A7FE01200C49C1F864
:1052A000A401FFF7A1FE07E0601CC4B2FA2C03DDE5
:1052B000FFF7D0FF012010BD0448803800680028A7
:1052C000F2D10249091D086000BFF4E7A081214224
:1052D000008021422DE9F0410B3020F00706104DEF
:1052E00019E02068B04215D3B0420AD9871B201DAF
:1052F000D4F80480FAF73EFFA019C0E900782860CE
:1053000004E060682860201DFAF734FF201D266045
:10531000BDE8F081251D2C68002CE2D10020F7E7C4
:10532000240A00200024FEF771FBFCF7CBFA0120D1
:10533000114908606420FFF731FE00200F49C1F8D1
:105340009801FDF7A9FC01210D48FEF7CFFC11E003
:1053500001F06CF80020FBF79DFF044614B12046D5
:10536000FEF750F80748007820B9FBF7DDFD012073
:1053700004490870ECE70000988121420080214236
:1053800000080040180A00202DE9F04106460025DB
:1053900000273046FFF736FD05462DB916A0FEF76B
:1053A000DBFF0020BDE8F08117A12846FFF714FDC0
:1053B000047D16A12846FFF70FFD0746012C06D0F5
:1053C000022C0CD0032C0BD0042C0ED109E011A11F
:1053D0003846FFF701FD007D0F49887006E005E0C3
:1053E00004E0601C0D49087000E000BF00BF2846C3
:1053F000FFF7C6FC0120D5E7706172736520666116
:10540000696C2E0A00000000636D640064617461C1
:10541000000000006C656400040A0020BC4B002002
:1054200070B50446FFF7FAFEAE20FFF7CFFEFFF798
:105430002BFF00B119E02046FFF7C8FEFFF724FF5D
:1054400000B112E0FFF7EAFEAF20FFF7BFFEFFF763
:105450001BFF00B109E00020FFF78CFE0546FFF7B7
:105460006DFEFFF7F7FE284670BDFFF7F3FE002044
:10547000FAE770B505460C46FFF7D0FEAE20FFF701
:10548000A5FEFFF701FF00B111E02846FFF79EFEE1
:10549000FFF7FAFE00B10AE02046FFF797FEFFF79C
:1054A000F3FE00B103E0FFF7D5FE012070BDFFF76A
:1054B000D1FE0020FAE770B505460C460020FFF744
:1054C000AFFF0120FFF7ACFFFFF7A8FEAE20FFF70C
:1054D0007DFEFFF7D9FE00B12AE02846FFF776FEF1
:1054E000FFF7D2FE00B123E0FFF798FEAF20FFF7F1
:1054F0006DFEFFF7C9FE00B11AE00120FFF73AFE8A
:1055000020700120FFF736FE60700120FFF732FEA9
:10551000A0700120FFF72EFEE0700120FFF72AFEA9
:1055200020710020FFF726FE6071FFF793FE00BF99
:10553000FFF790FE70BD000008B501210820FDF7BF
:10554000D1FE8020ADF8000048208DF803006946A8
:105550001948FCF7D4F8FFF7C3FD00F02FF8C0217D
:105560000220FFF786FF00210320FFF782FF0021C2
:105570000420FFF77EFF00210520FFF77AFF0021BE
:105580000620FFF776FF0F210820FFF772FF0321A7
:105590000920FFF76EFF27210A20FFF76AFF242169
:1055A0000C20FFF766FF24210D20FFF762FF7F210B
:1055B0001020FFF75EFF08BD000C014010B5402130
:1055C0000920FFF756FF40210920FFF752FF10BDC9
:1055D0002DE9F84705460C4616461F46DDE90A9AAE
:1055E000DDF824803B46324621462846CDF800802F
:1055F00000F090FA4B4632462146284600F0C7FAA2
:105600002068504501DA206800E050462060BDE87F
:10561000F88700002DE9FF4FC6B088469946002064
:105620004590002406E0469850F824104598084418
:105630004590641C4445F6DB4598B0FBF8F0459076
:10564000002408E0469850F824104598081AFE49AE
:1056500041F82400641C4445F4DB002417E0FA48B8
:1056600050F824100246601C52F820000144A01C8F
:1056700052F820000144E01C52F820000F18384670
:10568000F91707EB9171891042F82410641CB4F5E6
:10569000F87FE4DB00240AE0EB49601C51F82000AD
:1056A00051F82410401AE94941F82400641CB4F56B
:1056B000F77FF1DD00240EE0E44951F824200B4689
:1056C000611C53F82110501800EBD07149101A4694
:1056D00042F82410641CB4F5F77FEDDB00251BE0D5
:1056E000002043902C460BE0D84850F82410601B53
:1056F000D74A32F81020439801FB12004390641CF3
:10570000681D8442F0DB40F27A41439890FBF1F04F
:10571000CE4941F825006D1CB5F5F47FE0DD002091
:105720004190002410E0C94850F82400002803DD0F
:10573000C64850F8240003E0C44850F82400404212
:10574000419908444190641CB4F5F77FEBDD40F2C9
:10575000EF11419890FBF1F041900521082241980A
:1057600040F2EF13CDE901210090B84A40A912A8F8
:10577000FFF72EFF002011904098022821DB012422
:105780000BE012A850F82410601E12AA52F8200054
:10579000091A119808441190641C40988442F0DB67
:1057A0004098401E119991FBF0F0119041F27071F8
:1057B000119891FBF0F15498016001215598017006
:1057C00005E0A44954980160002155980170002417
:1057D00007E012A850F82400801C30A941F82400EA
:1057E000641C40988442F4DB00240CE0469850F896
:1057F0002400954941F82400489850F8240096491F
:1058000041F82400641C4445F0DB00204290002451
:105810002DE00120449030A850F824A04FF0807073
:105820003F900AF10500B0F5F77F1FDC0A38002829
:105830001CDD054611E0844850F825103F98814250
:105840000ADA449808B1002044907F4850F82500B7
:105850003F9021A840F824506D1C0AF105008542B4
:10586000E9DB449810B94298401C4290641C40986F
:105870008442CEDB4298022808DA7648C9F8000054
:105880000021539801704AB0BDE8F08F00242EE04B
:105890006D4951F824200B46611C53F821100A442D
:1058A000A11C53F821100A44E11C53F82110501890
:1058B000C11700EB917189101A4642F8241066490D
:1058C00051F824200B46611C53F821100A44A11CF6
:1058D00053F821100A44E11C53F821105018C11745
:1058E00000EB917189101A4642F82410641CB4F53B
:1058F000F87FCDDB002004900026002404E0002087
:1059000005A941F82400641C052CF8DB00240DE0F7
:1059100021A850F82400B0F5FA7F06DD4D48C9F8FB
:105920000000002153980170ADE7641C4298844246
:10593000EEDB0024AFE04FF07F400D900C9021A9EA
:10594000601C51F8200051F82410401A0A2879DD13
:1059500021A850F8245016E03B4850F825100C9828
:10596000814204DD384850F825000C900A953A48E9
:1059700050F825100D98814204DD374850F8250075
:105980000D900B956D1C21A9601C51F82000A842B8
:10599000E2DC601C51F820002F4951F8200021A9B9
:1059A00051F824102C4A52F82110401A21A951F81C
:1059B00024200B99891A4843109021A9601C51F8A2
:1059C000200051F82410411A109890FBF1F021A901
:1059D00051F82410204A52F8211008441090114622
:1059E0000B9851F820101098081A109021A9601CEB
:1059F00051F82000144951F8200021A951F8241031
:105A0000114A52F82110401A21A951F824200A996C
:105A1000891A48430F9021A9601C51F8200051F8C1
:105A20002410411A0F9890FBF1F021A951F824108D
:105A3000054A52F8211008440F9011460B9851F86E
:105A400020100BE026E00000F0290020302200208A
:105A5000F865000819FCFFFFC03100200F98081AF4
:105A60000F900C9910984843C01103900D990F980E
:105A70004843C711002F0DDD052E0BDA039848B1FE
:105A8000039800EB8000800090FBF7F005A941F837
:105A90002600761C641C4298401EA0423FF74BAF84
:105AA000314605A800F0ACF8304606EBD0714FEA5D
:105AB000610BBBF1010F0CDDABF1010105AA52F83E
:105AC000211052F82B20881800EBD0714910049156
:105AD00003E005A850F82B000490049802280DDD7F
